:020000040800F2
:1000000028070020E5010008312C0008152A000807
:100010002D2C000899070008953800080000000002
:10002000000000000000000000000000E12C0008BB
:100030009D07000800000000A12C0008392D0008D1
:10004000FF010008FF010008FF010008FF01000890
:10005000FF010008FF010008FF010008FF01000880
:10006000FF010008FF010008FF010008FF01000870
:10007000FF010008FF010008FF010008FF01000860
:10008000FF010008FF010008FF010008FF01000850
:10009000FF010008FF010008FF010008FF01000840
:1000A000FF010008FF010008FF010008FF01000830
:1000B000FF010008FF010008FF010008FF01000820
:1000C000FF010008FF010008FF010008FF01000810
:1000D000FF010008FF010008FF010008FF01000800
:1000E000FF010008FF010008FF010008FF010008F0
:1000F000FF010008FF010008FF010008FF010008E0
:10010000FF010008FF010008FF010008FF010008CF
:10011000B5330008FF010008FF010008FF010008D7
:10012000FF010008FF010008FF010008FF010008AF
:1001300000F002F800F047F80AA090E8000C8244B2
:100140008344AAF10107DA4501D100F03CF8AFF28F
:10015000090EBAE80F0013F0010F18BFFB1A43F0A5
:1001600001031847143C0000343C0000103A24BF3F
:1001700078C878C1FAD8520724BF30C830C144BF0C
:1001800004680C607047000000230024002500264E
:10019000103A28BF78C1FBD8520728BF30C148BFEA
:1001A0000B6070471FB59DE8030000F013F900F0E5
:1001B00043FA04000020002103F08CFD401C606025
:1001C0001FBD10B510BD00F012FA1146FFF7EAFF8F
:1001D00003F036FC00F042FA03B4FFF7F2FF03BC71
:1001E00000F072FA0948804709480047FEE7FEE739
:1001F000FEE7FEE7FEE7FEE7FEE7FEE7FEE7FEE7D7
:1002000004480549054A064B70470000AD2D00081B
:1002100031010008280100202807002028030020C1
:100220002803002070B5064600F0B4F8056806F112
:100230000B0020F00704B4429CBF002070BD2B4689
:100240006A68BAB11068A04210D304F1080188426C
:100250003CBF5068586007D351681019416011685D
:10026000091B016058601460101D70BD1346526870
:10027000002AE7D12146284600F098F80028DED170
:1002800070BD70B50446051F00F084F80068002CAE
:1002900014BF446870BD002C18BFAC423CBF204660
:1002A0006468F8D301680A18AA4218BF456003D1F0
:1002B0002A6805461144016028684119A1421CBF03
:1002C0006C6070BD6168696021680844286070BD19
:1002D00070B5064600F062F80468054630460A220A
:1002E000002100F0ADF82C6070BD4FF0000200B5A9
:1002F000134694469646203922BFA0E80C50A0E849
:100300000C50B1F12001BFF4F7AF090728BFA0E8F6
:100310000C5048BF0CC05DF804EB890028BF40F8C2
:10032000042B08BF704748BF20F8022B11F0804F04
:1003300018BF00F8012B704710B5044610F0030FEA
:1003400008BF11F0030F40F015804FF0013E121F5F
:10035000C0F20E8051F8043BA3EB0E0C2CEA030C08
:100360001CEACE1C08BF40F8043BF0D0A1F1040108
:1003700002F10402521E08DB11F8013B00F8013BB8
:10038000002BF7D1114600F093F8204610BD7047BE
:1003900070477047004870471800002000487047B9
:1003A00010000020704770477047704738B504460A
:1003B0000A4600206946AFF30080002808BF38BD18
:1003C00002460099204600F0A1F8012038BD012026
:1003D00000F005B9F8B5AFF30080054600200C46E3
:1003E000102000BF0646A819A0420DD93246694622
:1003F0000020AFF30080070008BF00F0F0F800987D
:10040000A04218BF0546C419FFF7C4FF05600746A0
:10041000F01D20F007004619284600F00AF8B44203
:1004200008BFF8BDA21B31463868BDE8F84000F0AF
:100430006DB800210160C0E90110704710207047BD
:100440002DE9F04791460F4680460446002614F8F1
:10045000015B2DB100F052F80068405DC007F6D195
:100460002B2D02D02D2D18D0641E4A463946204629
:1004700000F066F827B13968A14201D1C7F80080C1
:100480004FF0020471050BD54042002803DDFFF751
:1004900085FF0460A007BDE8F08746F48066E4E7C6
:1004A0000028F8DAFFF77AFF04606FF00040F2E707
:1004B0004FF000020429C0F0128010F0030C3FF44A
:1004C00016AFCCF1040CBCF1020F18BF00F8012BE1
:1004D000A8BF20F8022BA1EB0C01FFF708BF5FEAD1
:1004E000C17C24BF00F8012B00F8012B48BF00F8A5
:1004F000012B7047004870471000002010B500F035
:100500009BF8001D10BD00BFCD37000003464068BA
:100510008C46002818BF88423CBF03464068F8D389
:1005200018681844884207D00CF1030020F0070037
:10053000001D411A521A0146081D0A60FFF7A1BEAC
:100540002DE9F05F824615468B4600270AF101042B
:10055000B9460078302801D09DB113E014F8010BA2
:100560000127782803D0582801D045B10AE00DB101
:10057000102D07D1002714F8010B102502E00825E3
:1005800000E00A250026B0460EE005FB080005FB4A
:1005900006F101271FFA80F801EB1046B6F5803FFF
:1005A00000D3B94614F8010B294600F049F8002899
:1005B000EBDABBF1000F05D00FB1641E00E054462A
:1005C000CBF80040B9F1000F06D0FFF7E7FE02219B
:1005D0000160C81EBDE8F09F48EA0640FAE710B582
:1005E00000F04AF8BDE8104000F041B87047754689
:1005F000FFF780FFAE4605006946534620F007002E
:10060000854618B020B5FFF7FBFDBDE820404FF050
:1006100000064FF000074FF000084FF0000BAC460B
:10062000ACE8C009ACE8C009ACE8C009ACE8C00956
:1006300021F007018D4670470048704730000020C8
:100640003A2800D2303820F02002412A01D3A2F10A
:100650003700884201D34FF0FF30704710B5044691
:10066000AFF300802046BDE81040FFF7B5BD00287D
:1006700001D000F029B8704710B5012805D000213D
:1006800003A000F027F8012010BD09A1F8E7000041
:1006900053494752544D454D3A204F7574206F666B
:1006A0002068656170206D656D6F727900000000D3
:1006B0003A2048656170206D656D6F727920636FB7
:1006C000727275707465640001491820ABBEFEE754
:1006D0002600020070B505460C460A2000E06D1C9D
:1006E00000F052F835B128780028F8D102E0641CF7
:1006F00000F04AF814B120780028F8D1BDE8704025
:100700000A2000F041B800004FF0013C50F8042BE3
:1007100051F8043B9A4221D1A2EB0C03934313EA14
:10072000CC1317D150F8042B51F8043B9A4215D141
:10073000A2EB0C03934313EACC130BD150F8042B18
:1007400051F8043B9A4209D1A2EB0C03934313EAFC
:10075000CC13DBD04FF00000704700BFD01A01BAB5
:10076000B1FA81F101F0180122FA01F0CB40DBB2BD
:10077000C0B2C01AC1F120012CFA01F3D11A914381
:1007800011EAC311E6D1704708B569468DF800003B
:100790000320ABBE08BD0000FFE7FEE77047000086
:1007A00081B0EFF3108072B60090FFE7FEE7000023
:1007B00083B0019000208DF80300019890F821008B
:1007C00002280DD0FFE7019904208863FFE7019913
:1007D000002081F82000FFE701208DF80B0021E0C8
:1007E00001980168086820F00E000860019801680F
:1007F000086820F0010008600198C16B026C0120BC
:1008000090404860FFE70199012081F82100FFE74F
:100810000199002081F82000FFE79DF803008DF882
:100820000B00FFE79DF80B0003B0704780B596B052
:10083000159000208DF85300159890F8210002289B
:1008400007D0FFE715990420886301208DF8530035
:1008500074E115980168086820F00E00086015988A
:100860000168086820F0010008601598006881217F
:10087000C4F202018842C0F0A880FFE71598006822
:100880000821C4F20201884203D1FFE7012013903E
:1008900094E0159800681C21C4F20201884203D13B
:1008A000FFE71020129086E0159800683021C4F20E
:1008B0000201884204D1FFE74FF48070119077E085
:1008C000159800684421C4F20201884204D1FFE770
:1008D0004FF48050109068E0159800685821C4F2D9
:1008E0000201884204D1FFE74FF480300F9059E0B5
:1008F000159800686C21C4F20201884204D1FFE718
:100900004FF480100E904AE0159800688021C4F2E0
:100910000201884204D1FFE74FF080700D903BE068
:100920001598006840F20841C4F20201884203D1E0
:10093000FFE701200C902CE01598006840F21C4164
:10094000C4F20201884203D1FFE710200B901DE0A2
:100950001598006840F23041C4F20201884204D187
:10096000FFE74FF480700A900DE01598016840F29F
:100970004442C4F202024FF48030914208BF4FF467
:1009800080500A90FFE70A980B90FFE70B980C90B5
:10099000FFE70C980D90FFE70D980E90FFE70E987B
:1009A0000F90FFE70F981090FFE710981190FFE766
:1009B00011981290FFE712981390FFE7139840F2F6
:1009C0000441C4F202010860A5E0159800680821FE
:1009D000C4F20201884203D1FFE70120099094E0AC
:1009E000159800681C21C4F20201884203D1FFE778
:1009F0001020089086E0159800683021C4F20201AA
:100A0000884204D1FFE74FF48070079077E0159893
:100A100000684421C4F20201884204D1FFE74FF488
:100A20008050069068E0159800685821C4F20201D1
:100A3000884204D1FFE74FF48030059059E01598C3
:100A400000686C21C4F20201884204D1FFE74FF430
:100A5000801004904AE0159800688021C4F20201D9
:100A6000884204D1FFE74FF0807003903BE0159877
:100A7000006840F20841C4F20201884203D1FFE756
:100A8000012002902CE01598006840F21C41C4F24D
:100A90000201884203D1FFE7102001901DE0159864
:100AA000006840F23041C4F20201884204D1FFE7FD
:100AB0004FF4807000900DE01598016840F24442B8
:100AC000C4F202024FF48030914208BF4FF48050CC
:100AD0000090FFE700980190FFE701980290FFE780
:100AE00002980390FFE703980490FFE704980590AD
:100AF000FFE705980690FFE706980790FFE707983D
:100B00000890FFE708980990FFE709980421C4F2CC
:100B100002010860FFE71599012081F82100FFE735
:100B20001599002081F82000FFE71598406B20B14F
:100B3000FFE71598416B8847FFE7FFE79DF85300F3
:100B400016B080BD92B01190109100200F900B90C4
:100B5000FFE7109800680F99C840002800F09B81BB
:100B6000FFE70F99012088400E90109800680E99B9
:100B700008400D900D980E99884240F08881FFE75B
:100B8000109840680790002851D0FFE70798012887
:100B90003AD0FFE7079802283FD0FFE707980328DD
:100BA0005FD0FFE70798112832D0FFE70798122897
:100BB00038D0FFE707980021C1F21101884236D0F2
:100BC000FFE707980021C1F2120188422FD0FFE70A
:100BD00007980021C1F22101884228D0FFE7079839
:100BE0000021C1F22201884221D0FFE707980021AD
:100BF000C1F2310188421AD0FFE707980021C1F203
:100C00003201884213D02FE01098C0680B902CE07E
:100C10001098C06804300B9027E01098C068083026
:100C20000B9022E01098C0680C300B901DE01098DB
:100C3000806818B9FFE704200B9011E010988068D5
:100C4000012806D1FFE708200B900E981199086142
:100C500005E008200B900E9811994861FFE7FFE727
:100C600003E000200B9000E0FFE70D98FF2803D879
:100C7000FFE71198069003E0119804300690FFE713
:100C800006980A900D98FF2804D8FFE70F98800077
:100C9000059006E00F996FF01F0000EB81000590B2
:100CA000FFE7059809900A980068099A0F2191407A
:100CB00088430B99914008430A9908601098C079BD
:100CC000C006002840F1E280FFE7FFE741F218008C
:100CD000C4F20200016841F001010160006800F007
:100CE000010008900898FFE70F9820F00300082102
:100CF000C4F2010140580C900F9800F003008100ED
:100D00000F2000FA01F10C9888430C90119840F6DE
:100D10000001C4F20101884203D1FFE700200490E2
:100D200042E0119840F60041C4F20101884203D12B
:100D3000FFE70120039034E0119841F20001C4F272
:100D40000101884203D1FFE70220029026E01198BA
:100D500041F20041C4F20101884203D1FFE70320C0
:100D6000019018E0119841F60001C4F20101884297
:100D700003D1FFE7042000900AE0119941F60042F8
:100D8000C4F201020620914208BF05200090FFE74F
:100D900000980190FFE701980290FFE70298039006
:100DA000FFE703980490FFE704980F9901F003010F
:100DB000890000FA01F10C9808430C900C980F99E7
:100DC00021F003010822C4F20102885010988079B2
:100DD000C006002809D5FFE70D9A40F20841C4F289
:100DE000010108681043086008E00D9A40F20841CC
:100DF000C4F20101086890430860FFE71098807909
:100E00008006002809D5FFE70D9A40F20C41C4F294
:100E1000010108681043086008E00D9A40F20C4197
:100E2000C4F20101086890430860FFE710988079D8
:100E30008007002809D5FFE70D9A40F20441C4F26B
:100E4000010108681043086008E00D9A40F204416F
:100E5000C4F20101086890430860FFE710988079A8
:100E6000C00748B1FFE70D9A40F20041C4F201010A
:100E700008681043086008E00D9A40F20041C4F28F
:100E80000101086890430860FFE7FFE7FFE70F985C
:100E900001300F905DE612B07047000082B0019003
:100EA000ADF802108DF801209DF8010028B1FFE790
:100EB000BDF802000199086105E0BDF802000004D8
:100EC00001990861FFE702B07047000040F220106E
:100ED000C2F200000068704740F20400C2F2000055
:100EE000027840F22011C2F2000108681044086044
:100EF0007047000080B542F20001C4F202010868A8
:100F000040F010000860032000F086F80F2000F089
:100F100005F800F03BF8002080BD000080B582B0ED
:100F2000009040F20000C2F20000006840F20401AC
:100F3000C2F200010A784FF47A71B1FBF2F1B0FB12
:100F4000F1F000F063FD20B1FFE701208DF807000C
:100F500018E000980F280DD8FFE700994FF0FF30F8
:100F6000002200F03FF8009840F20801C2F20001B0
:100F7000086003E001208DF8070003E000208DF8F1
:100F80000700FFE79DF8070002B080BD82B0FFE7D1
:100F900041F21800C4F20200016841F00101016051
:100FA000006800F0010001900198FFE7FFE741F2BF
:100FB0001C00C4F20200016841F080510160006829
:100FC00000F0805000900098FFE702B070470000EA
:100FD00080B582B08DF807009DF9070002F05CFC37
:100FE00002B080BD80B586B08DF8170004910392E1
:100FF0000020029002F068FC02909DF91700019019
:1010000002980499039A01F015FE0146019802F036
:1010100063FC06B080BD000080B582B001900198ED
:1010200002F07CFC02B080BD80B584B002900191DA
:10103000029820B9FFE701208DF80F001BE101980D
:1010400042F20001C4F20201096801F0070188427E
:1010500016D9FFE742F20000C4F20200016821F055
:101060000701019A11430160006800F0070001992F
:10107000884204D0FFE701208DF80F00FBE0FFE776
:1010800002980078800700282AD5FFE702980078A8
:101090004007002809D5FFE741F20401C4F202012C
:1010A000086840F4E0600860FFE7029800780007F5
:1010B000002809D5FFE741F20401C4F202010868E3
:1010C00040F460500860FFE741F20401C4F20201FD
:1010D000086820F0F000029A926810430860FFE769
:1010E00002980078C007002860D0FFE702984068A7
:1010F00001280ED1FFE741F20000C4F202000068AF
:101100008003002804D4FFE701208DF80F00B2E02F
:1011100021E00298406802280ED1FFE741F200006A
:10112000C4F2020000688001002804D4FFE7012017
:101130008DF80F009FE00DE041F20000C4F20200C4
:1011400000688007002804D4FFE701208DF80F0015
:1011500091E0FFE7FFE741F20401C4F202010868F1
:1011600020F00300029A526810430860FFF7AEFEB9
:101170000090FFE741F20400C4F20200006800F0B2
:101180000C0002994968B0EB810F0ED0FFE7FFF722
:101190009DFE0099401A41F28931884204D3FFE74D
:1011A00003208DF80F0066E0E4E7FFE7019842F2C4
:1011B0000001C4F20201096801F00701884216D259
:1011C000FFE742F20000C4F20200016821F00701CB
:1011D000019A11430160006800F0070001998842FC
:1011E00004D0FFE701208DF80F0044E0FFE70298EC
:1011F0000078400700280CD5FFE741F20401C4F253
:101200000201086820F4E060029AD2681043086086
:10121000FFE702980078000700280DD5FFE741F2AC
:101220000401C4F20201086820F46050029A1269B5
:1012300040EAC2000860FFE700F04CF841F2040108
:10124000C4F202010968C9B20A0943F60051C0F6A6
:101250000001895CC84040F20001C2F20001086050
:1012600040F20800C2F200000068FFF757FE0020BD
:101270008DF80F00FFE79DF80F0004B080BD00005F
:1012800040F20000C2F200000068704780B5FFF72E
:10129000F7FF41F20401C4F202010968C1F302221E
:1012A00043F61051C0F60001895CC84080BD0000C3
:1012B00080B5FFF7E5FF41F20401C4F202010968BD
:1012C000C1F3C22243F61051C0F60001895CC84048
:1012D00080BD000086B0002005900490039002902D
:1012E000019041F20400C4F20200006805900598E4
:1012F00000F00C000146009100283FD0FFE7009865
:10130000042804D0FFE70098082806D037E041F20F
:101310000020C0F27A00019037E00598C0F38341C5
:1013200043F61850C0F60000405C02909DF816008D
:10133000C007C0B1FFE741F20400C4F20200006838
:10134000C0F3404143F62850C0F60000405C0490D2
:10135000029841F20021C0F27A0148430499B0FB9F
:10136000F1F0039007E0029840F60011C0F23D0151
:1013700048430390FFE70398019006E0FFE741F23E
:101380000020C0F27A000190FFE7019806B0704794
:1013900080B586B00490049820B9FFE701208DF84D
:1013A00017002EE304980078C007002800F0AE80F4
:1013B000FFE741F20400C4F20200006800F00C00F4
:1013C000042813D0FFE741F20400C4F202000068D1
:1013D00000F00C0008281BD1FFE741F20400C4F222
:1013E00002000068C003002812D5FFE741F20000A8
:1013F000C4F2020000688003002808D5FFE70498C3
:10140000406820B9FFE701208DF81700F9E27CE081
:10141000FFE704984068B0F5803F09D1FFE741F24B
:101420000001C4F20201086840F48030086032E034
:101430000498406868B9FFE741F20001C4F2020174
:10144000086820F480300860086820F48020086074
:1014500020E004984068B0F5A02F0DD1FFE741F2DD
:101460000001C4F20201086840F4802008600868A6
:1014700040F4803008600CE041F20001C4F2020147
:10148000086820F480300860086820F48020086034
:10149000FFE7FFE7FFE7FFE704984068D0B1FFE709
:1014A000FFF714FD0390FFE741F20000C4F20200D1
:1014B0000068800300280CD4FFE7FFF707FD0399BD
:1014C000401A652804D3FFE703208DF8170098E23F
:1014D000EAE719E0FFF7FAFC0390FFE741F20000AA
:1014E000C4F202000068800300280CD5FFE7FFF774
:1014F000EDFC0399401A652804D3FFE703208DF81B
:1015000017007EE2EAE7FFE7FFE7FFE704980078CD
:101510008007002840F18D80FFE741F20400C4F20B
:101520000200006810F00C0F13D0FFE741F2040036
:10153000C4F20200006800F00C00082829D1FFE77F
:1015400041F20400C4F202000068C003002820D465
:10155000FFE741F20000C4F20200006880070028A3
:1015600009D5FFE704980069012804D0FFE70120AE
:101570008DF8170045E241F20001C4F2020108684B
:1015800020F0F800049A526940EAC2000860FFE7C0
:101590004EE00498006958B3FFE70021C4F24221ED
:1015A00001200860FFF792FC0390FFE741F2000082
:1015B000C4F202000068800700280CD4FFE7FFF7A0
:1015C00085FC0399401A032804D3FFE703208DF814
:1015D000170016E2EAE741F20001C4F202010868CE
:1015E00020F0F800049A526940EAC20008601EE048
:1015F0000021C4F2422100200860FFF767FC03903D
:10160000FFE741F20000C4F20200006880070028F2
:101610000CD5FFE7FFF75AFC0399401A032804D3BF
:10162000FFE703208DF81700EBE1EAE7FFE7FFE7AC
:10163000FFE7049800780007002848D5FFE70498E2
:10164000806918B3FFE740F28041C4F242210120D3
:101650000860FFF73BFC0390FFE741F22400C4F26F
:1016600002000068800700280CD4FFE7FFF72EFC7B
:101670000399401A032804D3FFE703208DF81700CD
:10168000BFE1EAE7012001F00DFB1FE040F28041DD
:10169000C4F2422100200860FFF718FC0390FFE726
:1016A00041F22400C4F202000068800700280CD533
:1016B000FFE7FFF70BFC0399401A032804D3FFE769
:1016C00003208DF817009CE1EAE7FFE7FFE70498A5
:1016D00000784007002840F1D880FFE700208DF80F
:1016E000070041F21C00C4F202000068C00000289C
:1016F00013D4FFE7FFE741F21C00C4F202000168C7
:1017000041F080510160006800F080500090009826
:10171000FFE701208DF80700FFE747F20000C4F261
:1017200000000068C005002822D4FFE747F200014E
:10173000C4F20001086840F480700860FFF7C6FB3F
:101740000390FFE747F20000C4F200000068C00504
:1017500000280CD4FFE7FFF7B9FB0399401A65286E
:1017600004D3FFE703208DF817004AE1EAE7FFE71B
:10177000FFE70498C068012809D1FFE741F2200182
:10178000C4F20201086840F00100086031E00498EA
:10179000C06868B9FFE741F22001C4F2020108689D
:1017A00020F001000860086820F0040008601FE0D5
:1017B0000498C06805280DD1FFE741F22001C4F26A
:1017C0000201086840F004000860086840F0010069
:1017D00008600CE041F22001C4F20201086820F028
:1017E00001000860086820F004000860FFE7FFE7D8
:1017F000FFE7FFE70498C068E0B1FFE7FFF766FB8B
:101800000390FFE741F22000C4F202000068800765
:1018100000280ED4FFE7FFF759FB0399401A41F265
:101820008931884204D3FFE703208DF81700E8E0F0
:10183000E8E71BE0FFF74AFB0390FFE741F22000D7
:10184000C4F202000068800700280ED5FFE7FFF70A
:101850003DFB0399401A41F28931884204D3FFE7E6
:1018600003208DF81700CCE0E8E7FFE79DF80700BC
:10187000012809D1FFE741F21C01C4F20201086806
:1018800020F080500860FFE7FFE70498C069002857
:1018900000F0B380FFE741F20400C4F202000068E8
:1018A00000F00C00082800F08280FFE70498C0696F
:1018B00002285CD1FFE76021C4F2422100200860C9
:1018C000FFF704FB0390FFE741F20000C4F20200BF
:1018D0000068800100280CD5FFE7FFF7F7FA0399AD
:1018E000401A032804D3FFE703208DF8170088E08F
:1018F000EAE70498006AB0F5803F0CD1FFE741F2B7
:101900000401C4F20201086820F40030049A9268CD
:1019100010430860FFE741F20401C4F202010868C5
:1019200020F47410049B1A6A5B6A1A43104308601F
:101930006021C4F2422101200860FFF7C7FA03903A
:10194000FFE741F20000C4F20200006880010028B5
:101950000CD4FFE7FFF7BAFA0399401A032804D31F
:10196000FFE703208DF817004BE0EAE71EE0602157
:10197000C4F2422100200860FFF7A8FA0390FFE7B5
:1019800041F20000C4F202000068800100280CD57A
:10199000FFE7FFF79BFA0399401A032804D3FFE7F8
:1019A00003208DF817002CE0EAE7FFE724E0049815
:1019B000C069012804D1FFE701208DF8170020E05D
:1019C00041F20400C4F2020000680290029800F4A0
:1019D00080300499096A884208D1FFE7029800F430
:1019E00070100499496A884204D0FFE701208DF8FD
:1019F000170006E0FFE7FFE7FFE700208DF817007C
:101A0000FFE79DF8170006B080BD000080B582B0EA
:101A10000190019801F066F902B080BD84B0029097
:101A2000019100200090FFE7029890F83C00012807
:101A300004D1FFE702208DF80F0044E00299012055
:101A400081F83C00FFE7FFE7009820F0FF000199D4
:101A5000C96808430090009820F440700199896893
:101A600008430090009820F4806001994968084379
:101A70000090009820F400600199096808430090E4
:101A8000009820F48050019909690843009000985B
:101A900020F400500199496908430090009820F40F
:101AA00080400199C969084300900098029909682B
:101AB0004864FFE70299002081F83C00FFE700201E
:101AC0008DF80F00FFE79DF80F0004B0704700008D
:101AD00085B003900291FFE7039890F83C0001283D
:101AE00004D1FFE702208DF813006DE00399012077
:101AF00081F83C00FFE7FFE70399022081F83D00F1
:101B0000039800684068019003980068806800901E
:101B1000019820F070000190029801680198084334
:101B2000019001980399096848600398006842F69B
:101B30000041C4F2010188422AD0FFE703980068FF
:101B400043F20041C4F20101884221D0FFE703982B
:101B50000068B0F1804F1BD0FFE70398006840F2A7
:101B60000041C4F20001884212D0FFE703980068E8
:101B700040F60001C4F20001884209D0FFE7039853
:101B8000006840F60041C4F2000188420ED1FFE730
:101B9000009820F080000090029841680098084367
:101BA00000900098039909688860FFE70399012075
:101BB00081F83D00FFE70399002081F83C00FFE732
:101BC00000208DF81300FFE79DF8130005B0704763
:101BD00080B582B00090009820B9FFE701208DF811
:101BE00007003FE0009890F83D0040B9FFE70099FA
:101BF000002081F83C00009800F038F8FFE70099D9
:101C0000022081F83D00009951F8040B01F0D0F852
:101C10000099012081F84600FFE70099012081F832
:101C20003E00009981F83F00009981F8400000993A
:101C300081F84100FFE7FFE70099012081F84200A9
:101C4000009981F84300009981F84400009981F8D7
:101C50004500FFE70099012081F83D0000208DF844
:101C60000700FFE79DF8070002B080BD82B0019039
:101C70000198006842F60041C4F20101884210D187
:101C8000FFE7FFE741F21800C4F20200016841F4E7
:101C900000610160006800F4006000900098FFE7B8
:101CA000FFE702B07047000080B586B00490039152
:101CB00000208DF80B00FFE7049890F83C00012805
:101CC00004D1FFE702208DF81700ABE00499012052
:101CD00081F83C00FFE7FFE70499022081F83D000E
:101CE0000498006880680190019820F077000190C6
:101CF000019820F47F400190019804990968886058
:101D0000039800680090002872D0FFE70098102820
:101D10006ED0FFE7009820286AD0FFE700983028AF
:101D200066D0FFE70098402855D0FFE7009850287C
:101D300037D0FFE70098602840D0FFE70098702870
:101D40000BD0FFE70098B0F5805F05D0FFE7009863
:101D5000B0F5005F16D052E055E004980068039B90
:101D60005A689968DB6801F0DFF8049800688068B9
:101D70000190019840F0770001900198049909685A
:101D8000886040E004980068039B5A689968DB68A3
:101D900001F0CAF804980168886840F480408860BF
:101DA00031E004980068039A5168D26801F0B0FAF3
:101DB00004980068502101F0D1F824E004980068EC
:101DC000039A5168D26801F0CBFA04980068602148
:101DD00001F0C4F817E004980068039A5168D268CB
:101DE00001F096FA04980068402101F0B7F80AE083
:101DF000049800680399096801F0B0F803E0012035
:101E00008DF80B00FFE70499012081F83D00FFE702
:101E10000499002081F83C00FFE79DF80B008DF845
:101E20001700FFE79DF8170006B080BD80B586B0AB
:101E3000059000200490039002900190059800689E
:101E400042F60041C4F2010188421DD1FFE7FFE7DD
:101E500041F21800C4F20200016841F0040101607F
:101E6000006800F0040000900098FFE74FF4407015
:101E7000019002200290049040F60000C4F201009C
:101E800001A9FEF75FFEFFE706B080BD80B586B012
:101E900004900391029200208DF80700FFE7049858
:101EA00090F83C00012804D1FFE702208DF81700CC
:101EB00089E00499012081F83C00FFE7FFE70298E0
:101EC00000900C2800F270800099DFE801F0076DA7
:101ED0006D6D206D6D6D3A6D6D6D530004980068E9
:101EE000039901F051F804980168886940F00800EE
:101EF000886104980168886920F00400886103986B
:101F000002690498016888691043886150E0049868
:101F10000068039901F0B0F804980168886940F4FA
:101F20000060886104980168886920F48060886195
:101F30000398026904980168886940EA0220886170
:101F400036E004980068039901F012F904980168DA
:101F5000C86940F00800C86104980168C86920F0A9
:101F60000400C8610398026904980168C8691043B5
:101F7000C8611DE004980068039901F075F90498A0
:101F80000168C86940F40060C86104980168C869C4
:101F900020F48060C8610398026904980168C869E8
:101FA00040EA0220C86103E001208DF80700FFE746
:101FB000FFE70499002081F83C00FFE79DF8070047
:101FC0008DF81700FFE79DF8170006B080BD0000F0
:101FD00080B582B00090009820B9FFE701208DF80D
:101FE00007003FE0009890F83D0040B9FFE70099F6
:101FF000002081F83C00009800F038F8FFE70099D5
:10200000022081F83D00009951F8040B00F0D0FE49
:102010000099012081F84600FFE70099012081F82E
:102020003E00009981F83F00009981F84000009936
:1020300081F84100FFE7FFE70099012081F84200A5
:10204000009981F84300009981F84400009981F8D3
:102050004500FFE70099012081F83D0000208DF840
:102060000700FFE79DF8070002B080BD81B0009037
:1020700001B0704780B58CB00A900991099828B9D1
:10208000FFE70A9890F83E0007901CE009980428A2
:1020900005D1FFE70A9890F83F00069010E00998F4
:1020A000082805D1FFE70A9890F84000059004E061
:1020B0000A9890F841000590FFE705980690FFE721
:1020C00006980790FFE70798012804D0FFE7012052
:1020D0008DF82F009FE0099828B9FFE70A990220A0
:1020E00081F83E001EE00998042806D1FFE70A990E
:1020F000022081F83F00049012E00998082806D1D8
:10210000FFE70A99022081F84000039005E00A9950
:10211000022081F841000390FFE703980490FFE755
:102120000498FFE70A98006809990122019200F0DB
:10213000DFFE01980A99096842F60042C4F20102E2
:10214000914202900CD0FFE70A9800684CF60041DB
:10215000CBF6FE710844B0FA80F040090290FFE728
:102160000298C00738B1FFE70A980168486C40F44C
:1021700000404864FFE70A98006842F60041C4F254
:10218000010188422AD0FFE70A98006843F2004123
:10219000C4F20101884221D0FFE70A980068B0F13B
:1021A000804F1BD0FFE70A98006840F20041C4F25C
:1021B0000001884212D0FFE70A98006840F600014B
:1021C000C4F20001884209D0FFE70A98006840F68F
:1021D0000041C4F20001884212D1FFE70A9800686A
:1021E000806800F0070008900898062807D0FFE7ED
:1021F0000A980168086840F001000860FFE706E0FF
:102200000A980168086840F001000860FFE70020B4
:102210008DF82F00FFE79DF82F000CB080BD000067
:1022200082B00190ADF8021002B0704781B000900A
:1022300001B0704780B592B01190119800680068A5
:10224000109011980068C0680F901198006840695C
:102250000E9000200D900C90109800F00F000D9043
:102260000D9888B9FFE79DF84000800600280AD540
:10227000FFE79DF83C008006002804D5FFE7119891
:1022800001F00EF9E9E1FFE70D98002800F0C280A7
:10229000FFE79DF83800C00738B9FFE7BDF83C00FC
:1022A00010F4907F00F0B680FFE79DF84000C00773
:1022B00058B1FFE79DF83D00C00730B1FFE7119925
:1022C000486C40F001004864FFE79DF8400040077B
:1022D00000280BD5FFE79DF83800C00730B1FFE7B5
:1022E0001199486C40F002004864FFE79DF84000F7
:1022F000800700280BD5FFE79DF83800C00730B1F4
:10230000FFE71199486C40F004004864FFE79DF82E
:1023100040000007002811D5FFE79DF83C0080062B
:10232000002805D4FFE79DF83800C00730B1FFE76B
:102330001199486C40F008004864FFE71198406C20
:10234000002866D0FFE79DF84000800600280AD5E7
:10235000FFE79DF83C008006002804D5FFE71198B0
:1023600001F09EF8FFE7119800684069C0F3801003
:102370000C901198406C0007002804D4FFE70C98DB
:1023800000283ED0FFE7119801F02CF81198006862
:102390004069400600282FD5FFE7FFE7FFE71198C7
:1023A000006850E8050F20F040000B90FFE70B9904
:1023B0001198026842E805100028F0D1FFE7FFE716
:1023C0001198C06B98B1FFE71198C16B43F2C5300B
:1023D000C0F6000048631198C06BFEF727FA28B1D9
:1023E000FFE71198C06B416B8847FFE703E0119846
:1023F000FFF71CFFFFE703E01198FFF717FFFFE768
:1024000006E01198FFF712FF119900204864FFE7DA
:10241000FFE722E11198006B012840F0FE80FFE702
:102420009DF84000C006002840F1F780FFE79DF8C6
:102430003C00C006002840F1F080FFE7FFE70020E5
:102440000A901198006800680A9011980068406826
:102450000A900A98FFE71198006840694006002832
:1024600040F18180FFE71198C06B00684068ADF8CB
:102470002600BDF82600002874D0FFE7BDF826002E
:102480001199898D88426DDAFFE7BDF82600119910
:10249000C8851198C06B8069202858D0FFE7FFE7F6
:1024A000FFE71198006850E8030F20F4807008904F
:1024B000FFE708991198026842E803100028F0D15C
:1024C000FFE7FFE7FFE7FFE71198006850E8050F17
:1024D00020F001000790FFE707991198026842E891
:1024E00005100028F0D1FFE7FFE7FFE7FFE71198AD
:1024F000006850E8050F20F040000690FFE70699BD
:102500001198026842E805100028F0D1FFE7FFE7C4
:102510001199202081F84200119900200863FFE7FB
:10252000FFE71198006850E8030F20F010000590B5
:10253000FFE705991198026842E803100028F0D1DE
:10254000FFE7FFE71198C06BFEF732F9FFE711993B
:10255000022048631198818DC28D891A89B2FFF7D4
:102560005FFEFFE779E01199888DC98D401AADF8BB
:1025700012001198C08D00284ED0FFE7BDF8120060
:10258000002849D0FFE7FFE7FFE71198006850E80F
:10259000030F20F490700390FFE7039911980268ED
:1025A00042E803100028F0D1FFE7FFE7FFE7FFE76D
:1025B0001198006850E8050F20F001000290FFE735
:1025C00002991198026842E805100028F0D1FFE74F
:1025D000FFE71199202081F842001199002008633B
:1025E000FFE7FFE71198006850E8030F20F01000A4
:1025F0000190FFE701991198026842E80310002852
:10260000F0D1FFE7FFE71199022048631198BDF868
:102610001210FFF705FEFFE71FE09DF840000006DF
:1026200000280AD5FFE79DF83C000006002804D5E5
:10263000FFE7119801F07AF80FE09DF8400040069E
:1026400000280AD5FFE79DF83C004006002804D585
:10265000FFE7119800F010FFFFE712B080BD000007
:1026600080B582B00090009820B9FFE701208DF876
:10267000070040E00098806908B1FFE700E0FFE74D
:10268000009890F8410040B9FFE70099002081F8D8
:102690004000009800F034F8FFE70099242081F80A
:1026A000410000980168C86820F40050C860009894
:1026B00000F0ACFF00980168086920F490400861C0
:1026C00000980168486920F02A0048610098016874
:1026D000C86840F40050C860009900204864009A1F
:1026E000202182F84110009A82F842100099486334
:1026F0008DF80700FFE79DF8070002B080BD0000DD
:1027000080B58CB00B9000200A900990089007903B
:102710000B98006844F60041C4F20001884243D19E
:10272000FFE7FFE741F21C00C4F20200016841F438
:1027300000210160006800F4002006900698FFE781
:10274000FFE741F21800C4F20200016841F01001F5
:102750000160006800F0100005900598FFE74FF455
:10276000806007900220089003200A9041F2000048
:10277000C4F20100019007A90291FEF7E3F9019864
:1027800002994FF400620792002203920892099284
:10279000FEF7D8F9039A342004901146FEF722FC84
:1027A0000498FEF715FCFFE70CB080BD80B584B03F
:1027B00002900191ADF80220029890F84200202882
:1027C00017D1FFE7019820B1FFE7BDF8020020B95B
:1027D000FFE701208DF80F000FE002990020086349
:1027E00002980199BDF8022000F06EFF8DF80F00ED
:1027F00003E002208DF80F00FFE79DF80F0004B002
:1028000080BD000080B584B003900398006844F652
:102810000041C4F20001884266D1FFE740F2700037
:10282000C2F2000000780146019123280DD0FFE795
:1028300001982A282AD1FFE701F08EF840F27201B0
:10284000C2F200010120087042E040F28901C2F2A8
:1028500000010120087040F27201C2F20001002064
:10286000087040F28801C2F20001087040F2D40002
:10287000C2F2000040F27401C2F2000114224FF4CF
:102880007A7300F033F801F08FF821E040F2720023
:10289000C2F200000078D0B1FFE740F28900C2F236
:1028A0000000007898B9FFE740F27000C2F2000023
:1028B000007840F28801C2F200010B7840F2740205
:1028C000C2F20002D054087801300870FFE7FFE739
:1028D00040F2D400C2F2000040F27001C2F20001E6
:1028E0000122FFF763FFFFE704B080BD80B58AB027
:1028F00008900791ADF81A200593002002900898DF
:1029000090F84100202878D1FFE7079820B1FFE731
:10291000BDF81A0020B9FFE701208DF8270070E00C
:102920000899002048640899212081F84100FEF7A9
:10293000CDFA0290BDF81A0008998884BDF81A00F3
:102940000899C88408988068B0F5805F09D1FFE7CE
:102950000898006928B9FFE70020049007980390C1
:1029600004E00798049000200390FFE7FFE7089831
:10297000C08C58B3FFE70898029B05996A4611601E
:102980008021002200F01CFF20B1FFE703208DF81A
:10299000270036E0049858B9FFE7039800886FF3E2
:1029A0005F2008990968486003980230039008E0A6
:1029B00004980078089909684860049801300490E8
:1029C000FFE70899C88C0138C884D0E70898029BB3
:1029D00005996A4611604021002200F0F1FE20B105
:1029E000FFE703208DF827000BE00899202081F8ED
:1029F000410000208DF8270003E002208DF8270019
:102A0000FFE79DF827000AB080BD000081B000906C
:102A100001B07047FFE7FEE780B58AB0002009905B
:102A2000089007900690FFE741F21800C4F20200F8
:102A3000016841F020010160006800F0200005906D
:102A40000598FFE7FFE741F21800C4F202000168B1
:102A500041F004010160006800F004000490049853
:102A6000FFE7FFE741F21800C4F20200016841F0FD
:102A700010010160006800F0100003900398FFE768
:102A800040F60000C4F201000290302100910022C3
:102A90000192FEF703FA009A019902980692012228
:102AA000079208910221099106A9FEF74BF80AB096
:102AB00080BD000080B598B000210191179116915A
:102AC0001591149113911291119110910F910E91F2
:102AD0000D910C910B910A91099108910791069122
:102AE00005910491039140F28C00C2F20000029023
:102AF00042F60042C4F20102026047224260816055
:102B00006322C260016141618161FFF761F818B120
:102B1000FFE7FDF745FEFFE74FF48050149040F2C9
:102B20008C00C2F2000014A9FFF7BEF818B1FFE74D
:102B3000FDF736FEFFE740F28C00C2F20000FFF71F
:102B400047FA18B1FFE7FDF72BFEFFE700201290D0
:102B5000139040F28C00C2F2000012A9FEF7B8FFF9
:102B600018B1FFE7FDF71CFEFFE760200B90002285
:102B70000C920D920E920F921092119240F28C00D4
:102B8000C2F200000BA9FFF781F918B1FFE7FDF7CA
:102B900007FEFFE740F28C00C2F200000BA90422FE
:102BA000FFF774F918B1FFE7FDF7FAFDFFE7002022
:102BB000039004900590069007904FF400510891FF
:102BC0000A9040F28C00C2F2000003A9FEF726FF33
:102BD00018B1FFE7FDF7E4FDFFE740F28C00C2F219
:102BE0000000FFF723F918B080BD000080B582B067
:102BF00040F2D400C2F20000019044F60041C4F259
:102C0000000101604FF4E131416000218160C16049
:102C100001610C2242618161C161FFF721FD18B1A0
:102C2000FFE7FDF7BDFDFFE702B080BDFFE7FEE770
:102C3000FFE7FEE788B0079006910592079800F03D
:102C4000070004900498C0F10700052803D3FFE7AC
:102C50000420019004E00498C0F107000190FFE710
:102C60000198039004980430062803D8FFE7002059
:102C7000009003E0049803380090FFE7009802906A
:102C800006980399012202FA01F101390840029BDA
:102C9000984005999A40013A1140084308B070479E
:102CA0007047000082B00190019840F20001C2F22A
:102CB00000010968C90844F6D352C1F26202A1FBBF
:102CC0000221890948430090FFE700BFFFE7009811
:102CD000411E00910028F8D1FFE702B070470000C4
:102CE0007047000080B582B0009000980138B0F1C4
:102CF000807F03D3FFE70120019019E0009801389D
:102D00004EF21401CEF2000108604FF0FF300F21A7
:102D100000F0E2FD4EF21801CEF200010020086042
:102D20004EF21002CEF20002072111600190FFE77F
:102D3000019802B080BD000080B5FEF7CDF880BDDF
:102D400080B590B006A800902821FDF7CEFA009833
:102D500000230593049303930293019301220692A7
:102D60004FF48031079108930A9202220D920E913E
:102D70004FF4E0110F91FEF70BFB18B1FFE7FDF7E1
:102D80000FFDFFE70F200190022102910020039028
:102D90004FF480620492059001A8FEF745F918B13E
:102DA000FFE7FDF7FDFCFFE710B080BD70470000B6
:102DB00083B002900191029800680090029842F658
:102DC0000041C4F20101884225D0FFE7029843F296
:102DD0000041C4F2010188421DD0FFE70298B0F122
:102DE000804F18D0FFE7029840F20041C4F2000182
:102DF000884210D0FFE7029840F60001C4F20001BB
:102E0000884208D0FFE7029840F60041C4F2000172
:102E100088420AD1FFE7009820F0700000900198E6
:102E20004168009808430090FFE7029842F600418D
:102E3000C4F20101884225D0FFE7029843F2004125
:102E4000C4F2010188421DD0FFE70298B0F1804F23
:102E500018D0FFE7029840F20041C4F20001884216
:102E600010D0FFE7029840F60001C4F2000188424A
:102E700008D0FFE7029840F60041C4F20001884202
:102E80000AD1FFE7009820F4407000900198C168D3
:102E9000009808430090FFE7009820F08000019917
:102EA0004969084300900098029908600198806879
:102EB0000299C8620198006802998862029842F6F5
:102EC0000041C4F20101884208D0FFE7029843F2B2
:102ED0000041C4F20101884205D1FFE70198006971
:102EE00002990863FFE702990120486103B0704727
:102EF00084B0039002910192029800F01F0101201A
:102F000088400090009A0399086A904308620198EB
:102F1000029901F01F0100FA01F20399086A1043B7
:102F2000086204B07047000085B0049003910292DB
:102F30000193049880680090009820F47F400090EE
:102F400003980299019A41EA02210143009808433B
:102F5000009000980499886005B0704783B0029093
:102F60000191029880680090009820F07000009015
:102F700001980099084340F00700009000980299DA
:102F8000886003B07047000085B0049003910498F6
:102F9000006A01900499086A20F001000862049810
:102FA00040680090049880690290029820F07000B8
:102FB0000290029820F003000290039801680298A2
:102FC00008430290019820F0020001900398816864
:102FD000019808430190049842F60041C4F20101AF
:102FE000884208D0FFE7049843F20041C4F201018F
:102FF00088420ED1FFE7019820F008000190039865
:10300000C168019808430190019820F004000190E4
:10301000FFE7049842F60041C4F20101884208D05B
:10302000FFE7049843F20041C4F20101884213D142
:10303000FFE7009820F480700090009820F4007062
:1030400000900398416900980843009003988169B3
:10305000009808430090FFE70098049948600298A0
:103060000499886103984068049948630198049919
:10307000086205B07047000085B004900391049881
:10308000006A01900499086A20F010000862049810
:1030900040680090049880690290029820F4E04013
:1030A0000290029820F44070029003980168029800
:1030B00040EA01200290019820F02000019003983E
:1030C0008168019840EA01100190049842F600419D
:1030D000C4F20101884208D0FFE7049843F200419E
:1030E000C4F2010188420FD1FFE7019820F080006F
:1030F00001900398C168019840EA0110019001987D
:1031000020F040000190FFE7049842F60041C4F22D
:103110000101884208D0FFE7049843F20041C4F25D
:103120000101884215D1FFE7009820F480600090EB
:10313000009820F40060009003984169009840EAEC
:103140008100009003988169009840EA8100009016
:10315000FFE70098049948600298049988610398F1
:1031600040680499886301980499086205B0704723
:1031700085B0049003910498006A01900499086A4C
:1031800020F4807008620498406800900498C06938
:103190000290029820F070000290029820F0030044
:1031A000029003980168029808430290019820F465
:1031B0000070019003988168019840EA0120019015
:1031C000049842F60041C4F20101884208D0FFE7AA
:1031D000049843F20041C4F2010188420FD1FFE795
:1031E000019820F4006001900398C168019840EABA
:1031F00001200190019820F480600190FFE704987D
:1032000042F60041C4F20101884208D0FFE7049869
:1032100043F20041C4F20101884215D1FFE7009852
:1032200020F480500090009820F400500090039803
:103230004169009840EA0110009003988169009864
:1032400040EA01100090FFE7009804994860029856
:103250000499C861039840680499C8630198049967
:10326000086205B07047000085B00490039104988F
:10327000006A01900499086A20F48050086204985A
:10328000406800900498C0690290029820F4E040E1
:103290000290029820F4407002900398016802980E
:1032A00040EA01200290019820F400500190039818
:1032B0008168019840EA01300190049842F600418B
:1032C000C4F20101884208D0FFE7049843F20041AC
:1032D000C4F2010188420BD1FFE7009820F480403E
:1032E000009003984169009840EA81100090FFE740
:1032F00000980499486002980499C861039840684E
:103300000499086401980499086205B070470000A8
:1033100085B00490039102920498006A0090049989
:10332000086A20F001000862049880690190019801
:1033300020F0F00001900299019840EA01100190FC
:10334000009820F00A00009003990098084300902C
:1033500001980499886100980499086205B0704743
:1033600085B00490039102920498006A0090049939
:10337000086A20F0100008620498806901900198A2
:1033800020F4704001900299019840EA01300190C8
:10339000009820F0A00000900399009840EA0110E6
:1033A000009001980499886100980499086205B01A
:1033B0007047000080B540F2D400C2F20000FEF772
:1033C00039FF80BD80B582B001900198406A0090BD
:1033D00000990020C8850099C8840098FEF726FF50
:1033E00002B080BD84B00390FFE7FFE70398006858
:1033F00050E8030F20F490700290FFE702990398C1
:10340000026842E803100028F0D1FFE7FFE7FFE77A
:10341000FFE70398006850E8050F20F001000190D5
:10342000FFE701990398026842E805100028F0D1EF
:10343000FFE7FFE70398006B012814D1FFE7FFE7E0
:10344000FFE70398006850E8030F20F01000009099
:10345000FFE700990398026842E803100028F0D1C2
:10346000FFE7FFE7FFE70399202081F84200039977
:103470000020086304B0704780B582B001900198C5
:103480000168C86820F04000C8600199202081F8D8
:1034900041000198FFF7BAFA002002B080BD000099
:1034A00080B586B00490049890F84200222840F03D
:1034B000A480FFE704988068B0F5805F15D1FFE72E
:1034C0000498006988B9FFE7002003900498806A97
:1034D00002900498006840686FF35F2002990880AA
:1034E0000499886A0230886225E00498806A039013
:1034F0000020029004988068B0F5805F08D0FFE754
:103500000498806850B9FFE70498006930B9FFE774
:103510000498006840680399087007E00498006800
:10352000406800F07F0003990870FFE70499886AFB
:1035300001308862FFE70499C88D0138C88500040E
:10354000002856D1FFE704980168C86820F02000E1
:10355000C86004980168C86820F48070C860049846
:103560000168486920F0010048610499202081F831
:1035700042000499002048630498006B012830D170
:10358000FFE7049900200863FFE7FFE7049800685D
:1035900050E8030F20F010000190FFE70199049814
:1035A000026842E803100028F0D1FFE7FFE7049823
:1035B00000680068C00600280ED5FFE7FFE700207E
:1035C00000900498006800680090049800684068C3
:1035D00000900098FFE7FFE70498818DFEF720FE3A
:1035E00003E00498FFF70EF9FFE700208DF81700BD
:1035F00007E000208DF8170003E002208DF8170087
:10360000FFE79DF8170006B080BD000080B584B0CC
:10361000039003980068006920F44050039A1168F1
:10362000D26810430861039988680A6949691043A0
:103630000843029003980068C06841F20C61884317
:103640000299084303990968C860039800684069B3
:1036500020F44070039A11689269104348610398FE
:10366000006843F60001C4F20101884204D1FFE77B
:10367000FDF71EFE019003E0FDF708FE0190FFE755
:10368000019819214843039A116852689200B0FBCF
:10369000F2FC48F21F52C5F2EB12ACFB02304309B8
:1036A000642003FB10CC322000EB0C10A0FB0202C4
:1036B000F02000EA521000EB0310C2F34312104452
:1036C000886004B080BD000083B002900191ADF825
:1036D0000220019802998862BDF80200029988854B
:1036E000BDF802000299C885029900204864029939
:1036F000222081F842000298006938B1FFE7029861
:103700000168C86840F48070C860FFE702980168EB
:10371000486940F00100486102980168C86840F0BB
:103720002000C860002003B07047000083B0019003
:10373000019890F8410021283AD1FFE7019880686C
:10374000B0F5805F13D1FFE70198006978B9FFE712
:103750000198006A0090009800886FF35F2001993B
:10376000096848600199086A0230086208E0019A15
:10377000106A411C11620078019909684860FFE7EE
:103780000199C88C0138C884000468B9FFE7019822
:103790000168C86820F08000C86001980168C868A6
:1037A00040F04000C860FFE700208DF80B0003E008
:1037B00002208DF80B00FFE79DF80B0003B0704767
:1037C00080B588B0DDF828C0069005918DF81320EB
:1037D0000393FFE706980068006805990840401ABF
:1037E000B0FA80F040099DF81310884249D1FFE7F4
:1037F0000A980130002843D0FFE70A9840B1FFE75C
:10380000FDF764FB0399401A0A99884237D9FFE70C
:10381000FFE7FFE70698006850E8030F20F4D07038
:103820000290FFE702990698026842E80310002818
:10383000F0D1FFE7FFE7FFE7FFE70698006850E8F1
:10384000050F20F001000190FFE70199069802683A
:1038500042E805100028F0D1FFE7FFE70699202095
:1038600081F84100069981F84200FFE7069900209F
:1038700081F84000FFE703208DF81F0005E0FFE717
:10388000A8E700208DF81F00FFE79DF81F0008B093
:1038900080BD0000FFE7FEE781B08DF803009DF9D1
:1038A000030000280ED4FFE79DF9031001F01F026A
:1038B000012090404A094EF20011CEF2000141F879
:1038C0002200FFE701B070474EF60C50CEF2000028
:1038D0000068C0F30220704782B08DF807000091A5
:1038E0009DF9070000280AD4FFE7009800019DF920
:1038F00007104EF20042CEF2000288540BE000980E
:1039000000019DF8071001F00F014EF61452CEF29F
:1039100000028854FFE702B07047000083B00290B5
:10392000029800F0070000904EF60C51CEF2000114
:103930000868019001984FF6FF021040019001982D
:10394000009A40EA02200022C0F2FA52104301908D
:103950000198086003B0704781B000200090FFE735
:10396000009813280CDCFFE7009A40F27401C2F2C1
:10397000000100208854FFE7009801300090EFE735
:1039800001B0704780B540F27300C2F200000078C9
:1039900048B1FFE700F0ECF840F27301C2F2000119
:1039A00000200870FFE780BD80B582B040F289003A
:1039B000C2F20000007800283ED0FFE740F2890103
:1039C000C2F200010020087040F27400C2F2000050
:1039D000017840F21C10C2F2000001700078352816
:1039E00023D1FFE740F2D400C2F2000043F62A518F
:1039F000C0F60001052200924FF47A73FEF776FFBD
:103A0000009A40F27400C2F20000022100F0FEF8B9
:103A100001900198FCF75CFC40F21D11C2F200011C
:103A200008700198FCF72DFCFFE740F27301C2F229
:103A300000010120087000E0FFE702B080BD000037
:103A400080B584B00020009003905A208DF80B00C0
:103A5000FDF750FAFFF774F9FEF7DEFFFFF72AF8DB
:103A6000FFF7C4F8009940F28C00C2F20000019008
:103A7000FEF700FB01980421FEF7FCFA00F0AAF81B
:103A800040F2D400C2F2000040F27001C2F2000124
:103A90000122FEF78BFEFFE7FFF774FFFCE7000053
:103AA00080B584B040F21D10C2F200000090007892
:103AB000C0F1640040F28C01C2F20001019109687A
:103AC000486340F60000C4F2010002901021012278
:103AD0000392FDF7E3F90099019B0298039A097894
:103AE000C1F164011B6899632021FDF7D7F940F209
:103AF000D400C2F2000043F65B51C0F600010D2273
:103B00004FF47A73FEF7F2FE04B080BD80B584B046
:103B100040F21D10C2F200000090007840F28C01CB
:103B2000C2F2000101910968486340F60000C4F246
:103B300001000290102100220392FDF7AFF90099D5
:103B4000019B0298039A09781B6899632021FDF76D
:103B5000A5F940F2D400C2F2000043F66951C0F664
:103B600000010D224FF47A73FEF7C0FE04B080BD51
:103B700080B582B040F21C10C2F2000000783038EC
:103B800001460191042814D80199DFE801F00306E9
:103B9000090C0F0000F01EF819E0FFF7B7FF16E060
:103BA000FFF77EFF13E000F04DF810E000F070F832
:103BB0000DE040F2D400C2F2000043F63051C0F6EE
:103BC000000107224FF47A73FEF790FEFFE702B080
:103BD00080BD000080B582B040F28C00C2F20000CF
:103BE0000168002201924A630068826340F6000087
:103BF000C4F2010000901021FDF750F90098019ADD
:103C00002021FDF74BF902B080BD000080B586B0E1
:103C100005900491039203980499401A0290029827
:103C20000130FCF7FFFA019001980599049A1144BC
:103C3000029AFCF781FB0199029A002088540198AE
:103C400006B080BD80B582B040F21D10C2F2000007
:103C5000007840F28C01C2F200010968486340F626
:103C60000000C4F20100102101910022FDF716F9B5
:103C7000019A40F2D400C2F2000043F63851C0F677
:103C800000014FF47A73FEF731FE02B080BD0000F0
:103C900080B540F21D10C2F20000007840F28C01A5
:103CA000C2F200010968886340F60000C4F2010016
:103CB00020210022FDF7F2F840F2D400C2F2000009
:103CC00043F64951C0F6000111224FF47A73FEF712
:103CD0000DFE80BD10B500290AD00878002807D055
:103CE00005487844FCF710FD002801D0002010BDE5
:103CF0000248784410BD0000B6000000AE0000008D
:103D0000000000000000000001020304060708098B
:103D1000000000000102030402030405060708096D
:103D20000A0B0C0D0E0F1010010273706565640014
:103D3000696E76616C6964000A4D6F746F722074ED
:103D400075726E206C656674000A4D6F746F722018
:103D50007475726E207269676874000A4D6F746FB3
:103D6000722072756E206277000A4D6F746F722038
:103D700072756E2066770000A83E000800000020E3
:103D8000100000006C010008B83E00081000002080
:103D9000180700008801000810010000430000001F
:103DA000F8FFFFFF0040404040404040404041415C
:103DB0004141414040404040404040404040404000
:103DC000404040404005020202020202020202029A
:103DD0000202020202202020202020202020200297
:103DE0000202020202029090909090901010101027
:103DF00010101010101010101010101010101010C3
:103E00000202020202028888888888880808080856
:103E10000808080808080808080808080808080822
:103E2000020202024000000000000000000000004A
:103E30000000000000000000000000000000000082
:103E40000000000000000000000000000000000072
:103E50000000000000000000000000000000000062
:103E60000000000000000000000000000000000052
:103E70000000000000000000000000000000000042
:103E80000000000000000000000000000000000032
:103E90000000000000000000000000000000000022
:103EA00000000000000000000024F40001000000F9
:083EB0001000000000000000FA
:0400000508000131BD
:00000001FF
